:020000040000FA
:04000000830105284B
:040004000034003490
:020008000900ED
:06000A0083168430810022
:10001000831285010730990083169F01F93085000E
:1000200083122E3090008E018F01831210148316DC
:100030000C140B17FF30F100F20000308A00710839
:100040000F39253E03188A0A8200352835283E28B4
:1000500035284728352835283E2835285028352882
:100060003E2835284728352835285920782059201A
:10007000782059207820592078201D286020782069
:100080005920782067207820592078201D2860206A
:100090007F205920782067207820672078201D282D
:1000A00060207F2059207F206720862059208620CD
:1000B0001D2883121010E0308F0000308E006D2854
:1000C00083121010F0308F0000308E006D288312E4
:1000D0001010D0308F0000308E0010148312851461
:1000E00097208510A22083120C10630000000800E6
:1000F00083121010E0308F0000308E008C288312A5
:100100001010F0308F0000308E008C2883121010F9
:10011000D0308F0000308E00101483120515972008
:100120000511A22083120C10630000000800323079
:10013000F3008312E13081000B110B1D9D28F30B9E
:10014000992808000310F20CF10C031C0800B430CD
:04015000F2060800AB
:02400E00E4309C
:00000001FF
